:1000000009C021C020C01FC01EC01DC01CC01BC015
:100010001AC019C011241FBECFE9CDBF10E0A0E661
:10002000B0E0EAEBF0E002C005900D92A036B10717
:10003000D9F710E0A0E6B0E001C01D92A036B107EC
:10004000E1F702D038C0DCCFCF93DF9300D0CDB73B
:10005000DEB7B89AB99AC098C1981A821982BA982C
:10006000C29ABB98C39ABC98C49A81E022E0B49922
:100070001982B3991A82B49908C09981992329F4F5
:100080008983C09898B3922709C0B39909C09A810F
:10009000992331F48A83C19898B3982798BBE7CF06
:1000A000B299E5CF9A81992311F799819923F9F6AD
:0A00B000C098C198DCCFF894FFCF90
:00000001FF
